{
  "_format": "hh-sol-artifact-1",
  "contractName": "MyToken",
  "sourceName": "contracts/main.sol",
  "abi": [
    {
      "inputs": [
        {
          "internalType": "string",
          "name": "_name",
          "type": "string"
        },
        {
          "internalType": "string",
          "name": "_symbol",
          "type": "string"
        },
        {
          "internalType": "string",
          "name": "_initBaseURI",
          "type": "string"
        }
      ],
      "stateMutability": "nonpayable",
      "type": "constructor"
    },
    {
      "anonymous": false,
      "inputs": [
        {
          "indexed": true,
          "internalType": "address",
          "name": "owner",
          "type": "address"
        },
        {
          "indexed": true,
          "internalType": "address",
          "name": "approved",
          "type": "address"
        },
        {
          "indexed": true,
          "internalType": "uint256",
          "name": "tokenId",
          "type": "uint256"
        }
      ],
      "name": "Approval",
      "type": "event"
    },
    {
      "anonymous": false,
      "inputs": [
        {
          "indexed": true,
          "internalType": "address",
          "name": "owner",
          "type": "address"
        },
        {
          "indexed": true,
          "internalType": "address",
          "name": "operator",
          "type": "address"
        },
        {
          "indexed": false,
          "internalType": "bool",
          "name": "approved",
          "type": "bool"
        }
      ],
      "name": "ApprovalForAll",
      "type": "event"
    },
    {
      "anonymous": false,
      "inputs": [
        {
          "indexed": true,
          "internalType": "address",
          "name": "previousOwner",
          "type": "address"
        },
        {
          "indexed": true,
          "internalType": "address",
          "name": "newOwner",
          "type": "address"
        }
      ],
      "name": "OwnershipTransferred",
      "type": "event"
    },
    {
      "anonymous": false,
      "inputs": [
        {
          "indexed": false,
          "internalType": "uint256",
          "name": "id",
          "type": "uint256"
        },
        {
          "indexed": true,
          "internalType": "address",
          "name": "buyer",
          "type": "address"
        },
        {
          "indexed": false,
          "internalType": "uint256",
          "name": "cost",
          "type": "uint256"
        },
        {
          "indexed": true,
          "internalType": "string",
          "name": "tokenURI",
          "type": "string"
        },
        {
          "indexed": false,
          "internalType": "uint256",
          "name": "timestamp",
          "type": "uint256"
        }
      ],
      "name": "Sale",
      "type": "event"
    },
    {
      "anonymous": false,
      "inputs": [
        {
          "indexed": true,
          "internalType": "address",
          "name": "from",
          "type": "address"
        },
        {
          "indexed": true,
          "internalType": "address",
          "name": "to",
          "type": "address"
        },
        {
          "indexed": true,
          "internalType": "uint256",
          "name": "tokenId",
          "type": "uint256"
        }
      ],
      "name": "Transfer",
      "type": "event"
    },
    {
      "inputs": [
        {
          "internalType": "address",
          "name": "to",
          "type": "address"
        },
        {
          "internalType": "uint256",
          "name": "tokenId",
          "type": "uint256"
        }
      ],
      "name": "approve",
      "outputs": [],
      "stateMutability": "nonpayable",
      "type": "function"
    },
    {
      "inputs": [
        {
          "internalType": "address",
          "name": "owner",
          "type": "address"
        }
      ],
      "name": "balanceOf",
      "outputs": [
        {
          "internalType": "uint256",
          "name": "",
          "type": "uint256"
        }
      ],
      "stateMutability": "view",
      "type": "function"
    },
    {
      "inputs": [],
      "name": "baseExtension",
      "outputs": [
        {
          "internalType": "string",
          "name": "",
          "type": "string"
        }
      ],
      "stateMutability": "view",
      "type": "function"
    },
    {
      "inputs": [],
      "name": "baseImage",
      "outputs": [
        {
          "internalType": "string",
          "name": "",
          "type": "string"
        }
      ],
      "stateMutability": "view",
      "type": "function"
    },
    {
      "inputs": [],
      "name": "cost",
      "outputs": [
        {
          "internalType": "uint256",
          "name": "",
          "type": "uint256"
        }
      ],
      "stateMutability": "view",
      "type": "function"
    },
    {
      "inputs": [],
      "name": "getAllNFTs",
      "outputs": [
        {
          "components": [
            {
              "internalType": "uint256",
              "name": "id",
              "type": "uint256"
            },
            {
              "internalType": "address",
              "name": "buyer",
              "type": "address"
            },
            {
              "internalType": "uint256",
              "name": "cost",
              "type": "uint256"
            },
            {
              "internalType": "string",
              "name": "imageURL",
              "type": "string"
            },
            {
              "internalType": "uint256",
              "name": "timestamp",
              "type": "uint256"
            }
          ],
          "internalType": "struct MyToken.SaleStruct[]",
          "name": "",
          "type": "tuple[]"
        }
      ],
      "stateMutability": "view",
      "type": "function"
    },
    {
      "inputs": [
        {
          "internalType": "uint256",
          "name": "tokenId",
          "type": "uint256"
        }
      ],
      "name": "getAnNFT",
      "outputs": [
        {
          "components": [
            {
              "internalType": "uint256",
              "name": "id",
              "type": "uint256"
            },
            {
              "internalType": "address",
              "name": "buyer",
              "type": "address"
            },
            {
              "internalType": "uint256",
              "name": "cost",
              "type": "uint256"
            },
            {
              "internalType": "string",
              "name": "imageURL",
              "type": "string"
            },
            {
              "internalType": "uint256",
              "name": "timestamp",
              "type": "uint256"
            }
          ],
          "internalType": "struct MyToken.SaleStruct",
          "name": "",
          "type": "tuple"
        }
      ],
      "stateMutability": "view",
      "type": "function"
    },
    {
      "inputs": [
        {
          "internalType": "uint256",
          "name": "tokenId",
          "type": "uint256"
        }
      ],
      "name": "getApproved",
      "outputs": [
        {
          "internalType": "address",
          "name": "",
          "type": "address"
        }
      ],
      "stateMutability": "view",
      "type": "function"
    },
    {
      "inputs": [
        {
          "internalType": "address",
          "name": "owner",
          "type": "address"
        },
        {
          "internalType": "address",
          "name": "operator",
          "type": "address"
        }
      ],
      "name": "isApprovedForAll",
      "outputs": [
        {
          "internalType": "bool",
          "name": "",
          "type": "bool"
        }
      ],
      "stateMutability": "view",
      "type": "function"
    },
    {
      "inputs": [],
      "name": "maxSupply",
      "outputs": [
        {
          "internalType": "uint256",
          "name": "",
          "type": "uint256"
        }
      ],
      "stateMutability": "view",
      "type": "function"
    },
    {
      "inputs": [
        {
          "internalType": "uint256",
          "name": "",
          "type": "uint256"
        }
      ],
      "name": "minted",
      "outputs": [
        {
          "internalType": "uint256",
          "name": "id",
          "type": "uint256"
        },
        {
          "internalType": "address",
          "name": "buyer",
          "type": "address"
        },
        {
          "internalType": "uint256",
          "name": "cost",
          "type": "uint256"
        },
        {
          "internalType": "string",
          "name": "imageURL",
          "type": "string"
        },
        {
          "internalType": "uint256",
          "name": "timestamp",
          "type": "uint256"
        }
      ],
      "stateMutability": "view",
      "type": "function"
    },
    {
      "inputs": [],
      "name": "name",
      "outputs": [
        {
          "internalType": "string",
          "name": "",
          "type": "string"
        }
      ],
      "stateMutability": "view",
      "type": "function"
    },
    {
      "inputs": [],
      "name": "owner",
      "outputs": [
        {
          "internalType": "address",
          "name": "",
          "type": "address"
        }
      ],
      "stateMutability": "view",
      "type": "function"
    },
    {
      "inputs": [
        {
          "internalType": "uint256",
          "name": "tokenId",
          "type": "uint256"
        }
      ],
      "name": "ownerOf",
      "outputs": [
        {
          "internalType": "address",
          "name": "",
          "type": "address"
        }
      ],
      "stateMutability": "view",
      "type": "function"
    },
    {
      "inputs": [],
      "name": "paused",
      "outputs": [
        {
          "internalType": "bool",
          "name": "",
          "type": "bool"
        }
      ],
      "stateMutability": "view",
      "type": "function"
    },
    {
      "inputs": [
        {
          "internalType": "address",
          "name": "to",
          "type": "address"
        },
        {
          "internalType": "uint256",
          "name": "amount",
          "type": "uint256"
        }
      ],
      "name": "payTo",
      "outputs": [],
      "stateMutability": "nonpayable",
      "type": "function"
    },
    {
      "inputs": [],
      "name": "payToMint",
      "outputs": [],
      "stateMutability": "payable",
      "type": "function"
    },
    {
      "inputs": [],
      "name": "renounceOwnership",
      "outputs": [],
      "stateMutability": "nonpayable",
      "type": "function"
    },
    {
      "inputs": [
        {
          "internalType": "address",
          "name": "from",
          "type": "address"
        },
        {
          "internalType": "address",
          "name": "to",
          "type": "address"
        },
        {
          "internalType": "uint256",
          "name": "tokenId",
          "type": "uint256"
        }
      ],
      "name": "safeTransferFrom",
      "outputs": [],
      "stateMutability": "nonpayable",
      "type": "function"
    },
    {
      "inputs": [
        {
          "internalType": "address",
          "name": "from",
          "type": "address"
        },
        {
          "internalType": "address",
          "name": "to",
          "type": "address"
        },
        {
          "internalType": "uint256",
          "name": "tokenId",
          "type": "uint256"
        },
        {
          "internalType": "bytes",
          "name": "data",
          "type": "bytes"
        }
      ],
      "name": "safeTransferFrom",
      "outputs": [],
      "stateMutability": "nonpayable",
      "type": "function"
    },
    {
      "inputs": [
        {
          "internalType": "address",
          "name": "operator",
          "type": "address"
        },
        {
          "internalType": "bool",
          "name": "approved",
          "type": "bool"
        }
      ],
      "name": "setApprovalForAll",
      "outputs": [],
      "stateMutability": "nonpayable",
      "type": "function"
    },
    {
      "inputs": [
        {
          "internalType": "string",
          "name": "_newBAseURI",
          "type": "string"
        }
      ],
      "name": "setBaseURI",
      "outputs": [],
      "stateMutability": "nonpayable",
      "type": "function"
    },
    {
      "inputs": [
        {
          "internalType": "bool",
          "name": "_state",
          "type": "bool"
        }
      ],
      "name": "setPause",
      "outputs": [],
      "stateMutability": "nonpayable",
      "type": "function"
    },
    {
      "inputs": [
        {
          "internalType": "bytes4",
          "name": "interfaceId",
          "type": "bytes4"
        }
      ],
      "name": "supportsInterface",
      "outputs": [
        {
          "internalType": "bool",
          "name": "",
          "type": "bool"
        }
      ],
      "stateMutability": "view",
      "type": "function"
    },
    {
      "inputs": [],
      "name": "symbol",
      "outputs": [
        {
          "internalType": "string",
          "name": "",
          "type": "string"
        }
      ],
      "stateMutability": "view",
      "type": "function"
    },
    {
      "inputs": [
        {
          "internalType": "uint256",
          "name": "index",
          "type": "uint256"
        }
      ],
      "name": "tokenByIndex",
      "outputs": [
        {
          "internalType": "uint256",
          "name": "",
          "type": "uint256"
        }
      ],
      "stateMutability": "view",
      "type": "function"
    },
    {
      "inputs": [
        {
          "internalType": "address",
          "name": "owner",
          "type": "address"
        },
        {
          "internalType": "uint256",
          "name": "index",
          "type": "uint256"
        }
      ],
      "name": "tokenOfOwnerByIndex",
      "outputs": [
        {
          "internalType": "uint256",
          "name": "",
          "type": "uint256"
        }
      ],
      "stateMutability": "view",
      "type": "function"
    },
    {
      "inputs": [
        {
          "internalType": "uint256",
          "name": "tokenId",
          "type": "uint256"
        }
      ],
      "name": "tokenURI",
      "outputs": [
        {
          "internalType": "string",
          "name": "",
          "type": "string"
        }
      ],
      "stateMutability": "view",
      "type": "function"
    },
    {
      "inputs": [],
      "name": "totalSupply",
      "outputs": [
        {
          "internalType": "uint256",
          "name": "",
          "type": "uint256"
        }
      ],
      "stateMutability": "view",
      "type": "function"
    },
    {
      "inputs": [
        {
          "internalType": "address",
          "name": "from",
          "type": "address"
        },
        {
          "internalType": "address",
          "name": "to",
          "type": "address"
        },
        {
          "internalType": "uint256",
          "name": "tokenId",
          "type": "uint256"
        }
      ],
      "name": "transferFrom",
      "outputs": [],
      "stateMutability": "nonpayable",
      "type": "function"
    },
    {
      "inputs": [
        {
          "internalType": "address",
          "name": "newOwner",
          "type": "address"
        }
      ],
      "name": "transferOwnership",
      "outputs": [],
      "stateMutability": "nonpayable",
      "type": "function"
    }
  ],
  "bytecode": "0x60806040526040518060400160405280600581526020017f2e77656270000000000000000000000000000000000000000000000000000000815250600c90805190602001906200005192919062000322565b506040518060400160405280600581526020017f2e6a736f6e000000000000000000000000000000000000000000000000000000815250600d90805190602001906200009f92919062000322565b50655af3107a4000600e556063600f556000601060006101000a81548160ff021916908315150217905550348015620000d757600080fd5b5060405162004fe938038062004fe98339818101604052810190620000fd919062000444565b828281600090805190602001906200011792919062000322565b5080600190805190602001906200013092919062000322565b50505062000153620001476200016d60201b60201c565b6200017560201b60201c565b62000164816200023b60201b60201c565b505050620006d8565b600033905090565b6000600a60009054906101000a900473ffffffffffffffffffffffffffffffffffffffff16905081600a60006101000a81548173ffffffffffffffffffffffffffffffffffffffff021916908373ffffffffffffffffffffffffffffffffffffffff1602179055508173ffffffffffffffffffffffffffffffffffffffff168173ffffffffffffffffffffffffffffffffffffffff167f8be0079c531659141344cd1fd0a4f28419497f9722a3daafe3b4186f6b6457e060405160405180910390a35050565b6200024b6200026760201b60201c565b80600b90805190602001906200026392919062000322565b5050565b620002776200016d60201b60201c565b73ffffffffffffffffffffffffffffffffffffffff166200029d620002f860201b60201c565b73ffffffffffffffffffffffffffffffffffffffff1614620002f6576040517f08c379a0000000000000000000000000000000000000000000000000000000008152600401620002ed906200050c565b60405180910390fd5b565b6000600a60009054906101000a900473ffffffffffffffffffffffffffffffffffffffff16905090565b8280546200033090620005d4565b90600052602060002090601f016020900481019282620003545760008555620003a0565b82601f106200036f57805160ff1916838001178555620003a0565b82800160010185558215620003a0579182015b828111156200039f57825182559160200191906001019062000382565b5b509050620003af9190620003b3565b5090565b5b80821115620003ce576000816000905550600101620003b4565b5090565b6000620003e9620003e38462000557565b6200052e565b9050828152602081018484840111156200040257600080fd5b6200040f8482856200059e565b509392505050565b600082601f8301126200042957600080fd5b81516200043b848260208601620003d2565b91505092915050565b6000806000606084860312156200045a57600080fd5b600084015167ffffffffffffffff8111156200047557600080fd5b620004838682870162000417565b935050602084015167ffffffffffffffff811115620004a157600080fd5b620004af8682870162000417565b925050604084015167ffffffffffffffff811115620004cd57600080fd5b620004db8682870162000417565b9150509250925092565b6000620004f46020836200058d565b91506200050182620006af565b602082019050919050565b600060208201905081810360008301526200052781620004e5565b9050919050565b60006200053a6200054d565b90506200054882826200060a565b919050565b6000604051905090565b600067ffffffffffffffff8211156200057557620005746200066f565b5b62000580826200069e565b9050602081019050919050565b600082825260208201905092915050565b60005b83811015620005be578082015181840152602081019050620005a1565b83811115620005ce576000848401525b50505050565b60006002820490506001821680620005ed57607f821691505b6020821081141562000604576200060362000640565b5b50919050565b62000615826200069e565b810181811067ffffffffffffffff821117156200063757620006366200066f565b5b80604052505050565b7f4e487b7100000000000000000000000000000000000000000000000000000000600052602260045260246000fd5b7f4e487b7100000000000000000000000000000000000000000000000000000000600052604160045260246000fd5b6000601f19601f8301169050919050565b7f4f776e61626c653a2063616c6c6572206973206e6f7420746865206f776e6572600082015250565b61490180620006e86000396000f3fe6080604052600436106101d85760003560e01c80636352211e11610102578063b88d4fde11610095578063d5abeb0111610064578063d5abeb01146106c7578063e0391b09146106f2578063e985e9c51461071d578063f2fde38b1461075a576101d8565b8063b88d4fde1461060d578063bedb86fb14610636578063c66828621461065f578063c87b56dd1461068a576101d8565b80637dc0bf3f116100d15780637dc0bf3f1461054d5780638da5cb5b1461058e57806395d89b41146105b9578063a22cb465146105e4576101d8565b80636352211e1461049357806370a08231146104d0578063715018a61461050d5780637bf0862114610524576101d8565b806323b872dd1161017a578063509c718011610149578063509c7180146103f857806355f804b3146104025780635c975abb1461042b57806360249a9414610456576101d8565b806323b872dd1461032c5780632f745c591461035557806342842e0e146103925780634f6ccce7146103bb576101d8565b8063081812fc116101b6578063081812fc14610270578063095ea7b3146102ad57806313faede6146102d657806318160ddd14610301576101d8565b806301ffc9a7146101dd57806303b0f38d1461021a57806306fdde0314610245575b600080fd5b3480156101e957600080fd5b5061020460048036038101906101ff9190613468565b610783565b6040516102119190613c27565b60405180910390f35b34801561022657600080fd5b5061022f6107fd565b60405161023c9190613c42565b60405180910390f35b34801561025157600080fd5b5061025a61088b565b6040516102679190613c42565b60405180910390f35b34801561027c57600080fd5b50610297600480360381019061029291906134fb565b61091d565b6040516102a49190613b9e565b60405180910390f35b3480156102b957600080fd5b506102d460048036038101906102cf9190613403565b610963565b005b3480156102e257600080fd5b506102eb610a7b565b6040516102f89190613f26565b60405180910390f35b34801561030d57600080fd5b50610316610a81565b6040516103239190613f26565b60405180910390f35b34801561033857600080fd5b50610353600480360381019061034e91906132fd565b610a8e565b005b34801561036157600080fd5b5061037c60048036038101906103779190613403565b610aee565b6040516103899190613f26565b60405180910390f35b34801561039e57600080fd5b506103b960048036038101906103b491906132fd565b610b93565b005b3480156103c757600080fd5b506103e260048036038101906103dd91906134fb565b610bb3565b6040516103ef9190613f26565b60405180910390f35b610400610c4a565b005b34801561040e57600080fd5b50610429600480360381019061042491906134ba565b610f5b565b005b34801561043757600080fd5b50610440610f7d565b60405161044d9190613c27565b60405180910390f35b34801561046257600080fd5b5061047d600480360381019061047891906134fb565b610f90565b60405161048a9190613f04565b60405180910390f35b34801561049f57600080fd5b506104ba60048036038101906104b591906134fb565b611104565b6040516104c79190613b9e565b60405180910390f35b3480156104dc57600080fd5b506104f760048036038101906104f29190613298565b61118b565b6040516105049190613f26565b60405180910390f35b34801561051957600080fd5b50610522611243565b005b34801561053057600080fd5b5061054b60048036038101906105469190613403565b611257565b005b34801561055957600080fd5b50610574600480360381019061056f91906134fb565b6112da565b604051610585959493929190613f41565b60405180910390f35b34801561059a57600080fd5b506105a36113c8565b6040516105b09190613b9e565b60405180910390f35b3480156105c557600080fd5b506105ce6113f2565b6040516105db9190613c42565b60405180910390f35b3480156105f057600080fd5b5061060b600480360381019061060691906133c7565b611484565b005b34801561061957600080fd5b50610634600480360381019061062f919061334c565b61149a565b005b34801561064257600080fd5b5061065d6004803603810190610658919061343f565b6114fc565b005b34801561066b57600080fd5b50610674611521565b6040516106819190613c42565b60405180910390f35b34801561069657600080fd5b506106b160048036038101906106ac91906134fb565b6115af565b6040516106be9190613c42565b60405180910390f35b3480156106d357600080fd5b506106dc611659565b6040516106e99190613f26565b60405180910390f35b3480156106fe57600080fd5b5061070761165f565b6040516107149190613c05565b60405180910390f35b34801561072957600080fd5b50610744600480360381019061073f91906132c1565b6117c4565b6040516107519190613c27565b60405180910390f35b34801561076657600080fd5b50610781600480360381019061077c9190613298565b611858565b005b60007f780e9d63000000000000000000000000000000000000000000000000000000007bffffffffffffffffffffffffffffffffffffffffffffffffffffffff1916827bffffffffffffffffffffffffffffffffffffffffffffffffffffffff191614806107f657506107f5826118dc565b5b9050919050565b600c805461080a90614246565b80601f016020809104026020016040519081016040528092919081815260200182805461083690614246565b80156108835780601f1061085857610100808354040283529160200191610883565b820191906000526020600020905b81548152906001019060200180831161086657829003601f168201915b505050505081565b60606000805461089a90614246565b80601f01602080910402602001604051908101604052809291908181526020018280546108c690614246565b80156109135780601f106108e857610100808354040283529160200191610913565b820191906000526020600020905b8154815290600101906020018083116108f657829003601f168201915b5050505050905090565b6000610928826119be565b6004600083815260200190815260200160002060009054906101000a900473ffffffffffffffffffffffffffffffffffffffff169050919050565b600061096e82611104565b90508073ffffffffffffffffffffffffffffffffffffffff168373ffffffffffffffffffffffffffffffffffffffff1614156109df576040517f08c379a00000000000000000000000000000000000000000000000000000000081526004016109d690613e44565b60405180910390fd5b8073ffffffffffffffffffffffffffffffffffffffff166109fe611a09565b73ffffffffffffffffffffffffffffffffffffffff161480610a2d5750610a2c81610a27611a09565b6117c4565b5b610a6c576040517f08c379a0000000000000000000000000000000000000000000000000000000008152600401610a6390613e64565b60405180910390fd5b610a768383611a11565b505050565b600e5481565b6000600880549050905090565b610a9f610a99611a09565b82611aca565b610ade576040517f08c379a0000000000000000000000000000000000000000000000000000000008152600401610ad590613c84565b60405180910390fd5b610ae9838383611b5f565b505050565b6000610af98361118b565b8210610b3a576040517f08c379a0000000000000000000000000000000000000000000000000000000008152600401610b3190613ca4565b60405180910390fd5b600660008473ffffffffffffffffffffffffffffffffffffffff1673ffffffffffffffffffffffffffffffffffffffff168152602001908152602001600020600083815260200190815260200160002054905092915050565b610bae8383836040518060200160405280600081525061149a565b505050565b6000610bbd610a81565b8210610bfe576040517f08c379a0000000000000000000000000000000000000000000000000000000008152600401610bf590613e84565b60405180910390fd5b60088281548110610c38577f4e487b7100000000000000000000000000000000000000000000000000000000600052603260045260246000fd5b90600052602060002001549050919050565b6000610c54610a81565b9050601060009054906101000a900460ff1615610ca6576040517f08c379a0000000000000000000000000000000000000000000000000000000008152600401610c9d90613ea4565b60405180910390fd5b600f54811115610ceb576040517f08c379a0000000000000000000000000000000000000000000000000000000008152600401610ce290613d44565b60405180910390fd5b60003411610d2e576040517f08c379a0000000000000000000000000000000000000000000000000000000008152600401610d2590613c64565b60405180910390fd5b610d366113c8565b73ffffffffffffffffffffffffffffffffffffffff163373ffffffffffffffffffffffffffffffffffffffff1614610dae57600e54341015610dad576040517f08c379a0000000000000000000000000000000000000000000000000000000008152600401610da490613ee4565b60405180910390fd5b5b610dc433600183610dbf9190614106565b611e59565b60116040518060a00160405280600184610dde9190614106565b81526020013373ffffffffffffffffffffffffffffffffffffffff168152602001348152602001610e1a600185610e159190614106565b611e77565b81526020014281525090806001815401808255809150506001900390600052602060002090600502016000909190919091506000820151816000015560208201518160010160006101000a81548173ffffffffffffffffffffffffffffffffffffffff021916908373ffffffffffffffffffffffffffffffffffffffff160217905550604082015181600201556060820151816003019080519060200190610ec3929190613077565b50608082015181600401555050610ee5600182610ee09190614106565b6115af565b604051610ef29190613b41565b60405180910390203373ffffffffffffffffffffffffffffffffffffffff167fb9508407a6eccb191d8da3286f4173697cf95604e9ea192fe5ab7c862b5221f6600184610f3f9190614106565b3442604051610f5093929190613f9b565b60405180910390a350565b610f63611ed9565b80600b9080519060200190610f79929190613077565b5050565b601060009054906101000a900460ff1681565b610f986130fd565b6011600183610fa7919061415c565b81548110610fde577f4e487b7100000000000000000000000000000000000000000000000000000000600052603260045260246000fd5b90600052602060002090600502016040518060a0016040529081600082015481526020016001820160009054906101000a900473ffffffffffffffffffffffffffffffffffffffff1673ffffffffffffffffffffffffffffffffffffffff1673ffffffffffffffffffffffffffffffffffffffff1681526020016002820154815260200160038201805461107190614246565b80601f016020809104026020016040519081016040528092919081815260200182805461109d90614246565b80156110ea5780601f106110bf576101008083540402835291602001916110ea565b820191906000526020600020905b8154815290600101906020018083116110cd57829003601f168201915b505050505081526020016004820154815250509050919050565b60008061111083611f57565b9050600073ffffffffffffffffffffffffffffffffffffffff168173ffffffffffffffffffffffffffffffffffffffff161415611182576040517f08c379a000000000000000000000000000000000000000000000000000000000815260040161117990613e24565b60405180910390fd5b80915050919050565b60008073ffffffffffffffffffffffffffffffffffffffff168273ffffffffffffffffffffffffffffffffffffffff1614156111fc576040517f08c379a00000000000000000000000000000000000000000000000000000000081526004016111f390613da4565b60405180910390fd5b600360008373ffffffffffffffffffffffffffffffffffffffff1673ffffffffffffffffffffffffffffffffffffffff168152602001908152602001600020549050919050565b61124b611ed9565b6112556000611f94565b565b61125f611ed9565b60008273ffffffffffffffffffffffffffffffffffffffff168260405161128590613b89565b60006040518083038185875af1925050503d80600081146112c2576040519150601f19603f3d011682016040523d82523d6000602084013e6112c7565b606091505b50509050806112d557600080fd5b505050565b601181815481106112ea57600080fd5b90600052602060002090600502016000915090508060000154908060010160009054906101000a900473ffffffffffffffffffffffffffffffffffffffff169080600201549080600301805461133f90614246565b80601f016020809104026020016040519081016040528092919081815260200182805461136b90614246565b80156113b85780601f1061138d576101008083540402835291602001916113b8565b820191906000526020600020905b81548152906001019060200180831161139b57829003601f168201915b5050505050908060040154905085565b6000600a60009054906101000a900473ffffffffffffffffffffffffffffffffffffffff16905090565b60606001805461140190614246565b80601f016020809104026020016040519081016040528092919081815260200182805461142d90614246565b801561147a5780601f1061144f5761010080835404028352916020019161147a565b820191906000526020600020905b81548152906001019060200180831161145d57829003601f168201915b5050505050905090565b61149661148f611a09565b838361205a565b5050565b6114ab6114a5611a09565b83611aca565b6114ea576040517f08c379a00000000000000000000000000000000000000000000000000000000081526004016114e190613c84565b60405180910390fd5b6114f6848484846121c7565b50505050565b611504611ed9565b80601060006101000a81548160ff02191690831515021790555050565b600d805461152e90614246565b80601f016020809104026020016040519081016040528092919081815260200182805461155a90614246565b80156115a75780601f1061157c576101008083540402835291602001916115a7565b820191906000526020600020905b81548152906001019060200180831161158a57829003601f168201915b505050505081565b60606115ba82612223565b6115f9576040517f08c379a00000000000000000000000000000000000000000000000000000000081526004016115f090613e04565b60405180910390fd5b6000611603612264565b905060008151116116235760405180602001604052806000815250611651565b8061162d8461227b565b600d60405160200161164193929190613b58565b6040516020818303038152906040525b915050919050565b600f5481565b60606011805480602002602001604051908101604052809291908181526020016000905b828210156117bb57838290600052602060002090600502016040518060a0016040529081600082015481526020016001820160009054906101000a900473ffffffffffffffffffffffffffffffffffffffff1673ffffffffffffffffffffffffffffffffffffffff1673ffffffffffffffffffffffffffffffffffffffff1681526020016002820154815260200160038201805461172090614246565b80601f016020809104026020016040519081016040528092919081815260200182805461174c90614246565b80156117995780601f1061176e57610100808354040283529160200191611799565b820191906000526020600020905b81548152906001019060200180831161177c57829003601f168201915b5050505050815260200160048201548152505081526020019060010190611683565b50505050905090565b6000600560008473ffffffffffffffffffffffffffffffffffffffff1673ffffffffffffffffffffffffffffffffffffffff16815260200190815260200160002060008373ffffffffffffffffffffffffffffffffffffffff1673ffffffffffffffffffffffffffffffffffffffff16815260200190815260200160002060009054906101000a900460ff16905092915050565b611860611ed9565b600073ffffffffffffffffffffffffffffffffffffffff168173ffffffffffffffffffffffffffffffffffffffff1614156118d0576040517f08c379a00000000000000000000000000000000000000000000000000000000081526004016118c790613ce4565b60405180910390fd5b6118d981611f94565b50565b60007f80ac58cd000000000000000000000000000000000000000000000000000000007bffffffffffffffffffffffffffffffffffffffffffffffffffffffff1916827bffffffffffffffffffffffffffffffffffffffffffffffffffffffff191614806119a757507f5b5e139f000000000000000000000000000000000000000000000000000000007bffffffffffffffffffffffffffffffffffffffffffffffffffffffff1916827bffffffffffffffffffffffffffffffffffffffffffffffffffffffff1916145b806119b757506119b68261239f565b5b9050919050565b6119c781612223565b611a06576040517f08c379a00000000000000000000000000000000000000000000000000000000081526004016119fd90613e24565b60405180910390fd5b50565b600033905090565b816004600083815260200190815260200160002060006101000a81548173ffffffffffffffffffffffffffffffffffffffff021916908373ffffffffffffffffffffffffffffffffffffffff160217905550808273ffffffffffffffffffffffffffffffffffffffff16611a8483611104565b73ffffffffffffffffffffffffffffffffffffffff167f8c5be1e5ebec7d5bd14f71427d1e84f3dd0314c0f7b2291e5b200ac8c7c3b92560405160405180910390a45050565b600080611ad683611104565b90508073ffffffffffffffffffffffffffffffffffffffff168473ffffffffffffffffffffffffffffffffffffffff161480611b185750611b1781856117c4565b5b80611b5657508373ffffffffffffffffffffffffffffffffffffffff16611b3e8461091d565b73ffffffffffffffffffffffffffffffffffffffff16145b91505092915050565b8273ffffffffffffffffffffffffffffffffffffffff16611b7f82611104565b73ffffffffffffffffffffffffffffffffffffffff1614611bd5576040517f08c379a0000000000000000000000000000000000000000000000000000000008152600401611bcc90613d04565b60405180910390fd5b600073ffffffffffffffffffffffffffffffffffffffff168273ffffffffffffffffffffffffffffffffffffffff161415611c45576040517f08c379a0000000000000000000000000000000000000000000000000000000008152600401611c3c90613d64565b60405180910390fd5b611c528383836001612409565b8273ffffffffffffffffffffffffffffffffffffffff16611c7282611104565b73ffffffffffffffffffffffffffffffffffffffff1614611cc8576040517f08c379a0000000000000000000000000000000000000000000000000000000008152600401611cbf90613d04565b60405180910390fd5b6004600082815260200190815260200160002060006101000a81549073ffffffffffffffffffffffffffffffffffffffff02191690556001600360008573ffffffffffffffffffffffffffffffffffffffff1673ffffffffffffffffffffffffffffffffffffffff168152602001908152602001600020600082825403925050819055506001600360008473ffffffffffffffffffffffffffffffffffffffff1673ffffffffffffffffffffffffffffffffffffffff16815260200190815260200160002060008282540192505081905550816002600083815260200190815260200160002060006101000a81548173ffffffffffffffffffffffffffffffffffffffff021916908373ffffffffffffffffffffffffffffffffffffffff160217905550808273ffffffffffffffffffffffffffffffffffffffff168473ffffffffffffffffffffffffffffffffffffffff167fddf252ad1be2c89b69c2b068fc378daa952ba7f163c4a11628f55a4df523b3ef60405160405180910390a4611e548383836001612569565b505050565b611e7382826040518060200160405280600081525061256f565b5050565b60606000611e83612264565b90506000815111611ea35760405180602001604052806000815250611ed1565b80611ead8461227b565b600c604051602001611ec193929190613b58565b6040516020818303038152906040525b915050919050565b611ee1611a09565b73ffffffffffffffffffffffffffffffffffffffff16611eff6113c8565b73ffffffffffffffffffffffffffffffffffffffff1614611f55576040517f08c379a0000000000000000000000000000000000000000000000000000000008152600401611f4c90613de4565b60405180910390fd5b565b60006002600083815260200190815260200160002060009054906101000a900473ffffffffffffffffffffffffffffffffffffffff169050919050565b6000600a60009054906101000a900473ffffffffffffffffffffffffffffffffffffffff16905081600a60006101000a81548173ffffffffffffffffffffffffffffffffffffffff021916908373ffffffffffffffffffffffffffffffffffffffff1602179055508173ffffffffffffffffffffffffffffffffffffffff168173ffffffffffffffffffffffffffffffffffffffff167f8be0079c531659141344cd1fd0a4f28419497f9722a3daafe3b4186f6b6457e060405160405180910390a35050565b8173ffffffffffffffffffffffffffffffffffffffff168373ffffffffffffffffffffffffffffffffffffffff1614156120c9576040517f08c379a00000000000000000000000000000000000000000000000000000000081526004016120c090613d84565b60405180910390fd5b80600560008573ffffffffffffffffffffffffffffffffffffffff1673ffffffffffffffffffffffffffffffffffffffff16815260200190815260200160002060008473ffffffffffffffffffffffffffffffffffffffff1673ffffffffffffffffffffffffffffffffffffffff16815260200190815260200160002060006101000a81548160ff0219169083151502179055508173ffffffffffffffffffffffffffffffffffffffff168373ffffffffffffffffffffffffffffffffffffffff167f17307eab39ab6107e8899845ad3d59bd9653f200f220920489ca2b5937696c31836040516121ba9190613c27565b60405180910390a3505050565b6121d2848484611b5f565b6121de848484846125ca565b61221d576040517f08c379a000000000000000000000000000000000000000000000000000000000815260040161221490613cc4565b60405180910390fd5b50505050565b60008073ffffffffffffffffffffffffffffffffffffffff1661224583611f57565b73ffffffffffffffffffffffffffffffffffffffff1614159050919050565b606060405180602001604052806000815250905090565b60606000600161228a84612761565b01905060008167ffffffffffffffff8111156122cf577f4e487b7100000000000000000000000000000000000000000000000000000000600052604160045260246000fd5b6040519080825280601f01601f1916602001820160405280156123015781602001600182028036833780820191505090505b509050600082602001820190505b600115612394578080600190039150507f3031323334353637383961626364656600000000000000000000000000000000600a86061a8153600a858161237e577f4e487b7100000000000000000000000000000000000000000000000000000000600052601260045260246000fd5b049450600085141561238f57612394565b61230f565b819350505050919050565b60007f01ffc9a7000000000000000000000000000000000000000000000000000000007bffffffffffffffffffffffffffffffffffffffffffffffffffffffff1916827bffffffffffffffffffffffffffffffffffffffffffffffffffffffff1916149050919050565b61241584848484612998565b6001811115612459576040517f08c379a000000000000000000000000000000000000000000000000000000000815260040161245090613ec4565b60405180910390fd5b6000829050600073ffffffffffffffffffffffffffffffffffffffff168573ffffffffffffffffffffffffffffffffffffffff1614156124a15761249c81612abe565b6124e0565b8373ffffffffffffffffffffffffffffffffffffffff168573ffffffffffffffffffffffffffffffffffffffff16146124df576124de8582612b07565b5b5b600073ffffffffffffffffffffffffffffffffffffffff168473ffffffffffffffffffffffffffffffffffffffff1614156125235761251e81612c74565b612562565b8473ffffffffffffffffffffffffffffffffffffffff168473ffffffffffffffffffffffffffffffffffffffff1614612561576125608482612db7565b5b5b5050505050565b50505050565b6125798383612e36565b61258660008484846125ca565b6125c5576040517f08c379a00000000000000000000000000000000000000000000000000000000081526004016125bc90613cc4565b60405180910390fd5b505050565b60006125eb8473ffffffffffffffffffffffffffffffffffffffff16613054565b15612754578373ffffffffffffffffffffffffffffffffffffffff1663150b7a02612614611a09565b8786866040518563ffffffff1660e01b81526004016126369493929190613bb9565b602060405180830381600087803b15801561265057600080fd5b505af192505050801561268157506040513d601f19601f8201168201806040525081019061267e9190613491565b60015b612704573d80600081146126b1576040519150601f19603f3d011682016040523d82523d6000602084013e6126b6565b606091505b506000815114156126fc576040517f08c379a00000000000000000000000000000000000000000000000000000000081526004016126f390613cc4565b60405180910390fd5b805181602001fd5b63150b7a0260e01b7bffffffffffffffffffffffffffffffffffffffffffffffffffffffff1916817bffffffffffffffffffffffffffffffffffffffffffffffffffffffff191614915050612759565b600190505b949350505050565b600080600090507a184f03e93ff9f4daa797ed6e38ed64bf6a1f01000000000000000083106127e5577a184f03e93ff9f4daa797ed6e38ed64bf6a1f01000000000000000083816127db577f4e487b7100000000000000000000000000000000000000000000000000000000600052601260045260246000fd5b0492506040810190505b6d04ee2d6d415b85acef81000000008310612848576d04ee2d6d415b85acef8100000000838161283e577f4e487b7100000000000000000000000000000000000000000000000000000000600052601260045260246000fd5b0492506020810190505b662386f26fc10000831061289d57662386f26fc100008381612893577f4e487b7100000000000000000000000000000000000000000000000000000000600052601260045260246000fd5b0492506010810190505b6305f5e10083106128ec576305f5e10083816128e2577f4e487b7100000000000000000000000000000000000000000000000000000000600052601260045260246000fd5b0492506008810190505b612710831061293757612710838161292d577f4e487b7100000000000000000000000000000000000000000000000000000000600052601260045260246000fd5b0492506004810190505b606483106129805760648381612976577f4e487b7100000000000000000000000000000000000000000000000000000000600052601260045260246000fd5b0492506002810190505b600a831061298f576001810190505b80915050919050565b6001811115612ab857600073ffffffffffffffffffffffffffffffffffffffff168473ffffffffffffffffffffffffffffffffffffffff1614612a2c5780600360008673ffffffffffffffffffffffffffffffffffffffff1673ffffffffffffffffffffffffffffffffffffffff1681526020019081526020016000206000828254612a24919061415c565b925050819055505b600073ffffffffffffffffffffffffffffffffffffffff168373ffffffffffffffffffffffffffffffffffffffff1614612ab75780600360008573ffffffffffffffffffffffffffffffffffffffff1673ffffffffffffffffffffffffffffffffffffffff1681526020019081526020016000206000828254612aaf9190614106565b925050819055505b5b50505050565b6008805490506009600083815260200190815260200160002081905550600881908060018154018082558091505060019003906000526020600020016000909190919091505550565b60006001612b148461118b565b612b1e919061415c565b9050600060076000848152602001908152602001600020549050818114612c03576000600660008673ffffffffffffffffffffffffffffffffffffffff1673ffffffffffffffffffffffffffffffffffffffff168152602001908152602001600020600084815260200190815260200160002054905080600660008773ffffffffffffffffffffffffffffffffffffffff1673ffffffffffffffffffffffffffffffffffffffff168152602001908152602001600020600084815260200190815260200160002081905550816007600083815260200190815260200160002081905550505b6007600084815260200190815260200160002060009055600660008573ffffffffffffffffffffffffffffffffffffffff1673ffffffffffffffffffffffffffffffffffffffff16815260200190815260200160002060008381526020019081526020016000206000905550505050565b60006001600880549050612c88919061415c565b9050600060096000848152602001908152602001600020549050600060088381548110612cde577f4e487b7100000000000000000000000000000000000000000000000000000000600052603260045260246000fd5b906000526020600020015490508060088381548110612d26577f4e487b7100000000000000000000000000000000000000000000000000000000600052603260045260246000fd5b906000526020600020018190555081600960008381526020019081526020016000208190555060096000858152602001908152602001600020600090556008805480612d9b577f4e487b7100000000000000000000000000000000000000000000000000000000600052603160045260246000fd5b6001900381819060005260206000200160009055905550505050565b6000612dc28361118b565b905081600660008573ffffffffffffffffffffffffffffffffffffffff1673ffffffffffffffffffffffffffffffffffffffff168152602001908152602001600020600083815260200190815260200160002081905550806007600084815260200190815260200160002081905550505050565b600073ffffffffffffffffffffffffffffffffffffffff168273ffffffffffffffffffffffffffffffffffffffff161415612ea6576040517f08c379a0000000000000000000000000000000000000000000000000000000008152600401612e9d90613dc4565b60405180910390fd5b612eaf81612223565b15612eef576040517f08c379a0000000000000000000000000000000000000000000000000000000008152600401612ee690613d24565b60405180910390fd5b612efd600083836001612409565b612f0681612223565b15612f46576040517f08c379a0000000000000000000000000000000000000000000000000000000008152600401612f3d90613d24565b60405180910390fd5b6001600360008473ffffffffffffffffffffffffffffffffffffffff1673ffffffffffffffffffffffffffffffffffffffff16815260200190815260200160002060008282540192505081905550816002600083815260200190815260200160002060006101000a81548173ffffffffffffffffffffffffffffffffffffffff021916908373ffffffffffffffffffffffffffffffffffffffff160217905550808273ffffffffffffffffffffffffffffffffffffffff16600073ffffffffffffffffffffffffffffffffffffffff167fddf252ad1be2c89b69c2b068fc378daa952ba7f163c4a11628f55a4df523b3ef60405160405180910390a4613050600083836001612569565b5050565b6000808273ffffffffffffffffffffffffffffffffffffffff163b119050919050565b82805461308390614246565b90600052602060002090601f0160209004810192826130a557600085556130ec565b82601f106130be57805160ff19168380011785556130ec565b828001600101855582156130ec579182015b828111156130eb5782518255916020019190600101906130d0565b5b5090506130f99190613142565b5090565b6040518060a0016040528060008152602001600073ffffffffffffffffffffffffffffffffffffffff1681526020016000815260200160608152602001600081525090565b5b8082111561315b576000816000905550600101613143565b5090565b600061317261316d84613ff7565b613fd2565b90508281526020810184848401111561318a57600080fd5b613195848285614204565b509392505050565b60006131b06131ab84614028565b613fd2565b9050828152602081018484840111156131c857600080fd5b6131d3848285614204565b509392505050565b6000813590506131ea8161486f565b92915050565b6000813590506131ff81614886565b92915050565b6000813590506132148161489d565b92915050565b6000815190506132298161489d565b92915050565b600082601f83011261324057600080fd5b813561325084826020860161315f565b91505092915050565b600082601f83011261326a57600080fd5b813561327a84826020860161319d565b91505092915050565b600081359050613292816148b4565b92915050565b6000602082840312156132aa57600080fd5b60006132b8848285016131db565b91505092915050565b600080604083850312156132d457600080fd5b60006132e2858286016131db565b92505060206132f3858286016131db565b9150509250929050565b60008060006060848603121561331257600080fd5b6000613320868287016131db565b9350506020613331868287016131db565b925050604061334286828701613283565b9150509250925092565b6000806000806080858703121561336257600080fd5b6000613370878288016131db565b9450506020613381878288016131db565b935050604061339287828801613283565b925050606085013567ffffffffffffffff8111156133af57600080fd5b6133bb8782880161322f565b91505092959194509250565b600080604083850312156133da57600080fd5b60006133e8858286016131db565b92505060206133f9858286016131f0565b9150509250929050565b6000806040838503121561341657600080fd5b6000613424858286016131db565b925050602061343585828601613283565b9150509250929050565b60006020828403121561345157600080fd5b600061345f848285016131f0565b91505092915050565b60006020828403121561347a57600080fd5b600061348884828501613205565b91505092915050565b6000602082840312156134a357600080fd5b60006134b18482850161321a565b91505092915050565b6000602082840312156134cc57600080fd5b600082013567ffffffffffffffff8111156134e657600080fd5b6134f284828501613259565b91505092915050565b60006020828403121561350d57600080fd5b600061351b84828501613283565b91505092915050565b60006135308383613a37565b905092915050565b61354181614190565b82525050565b61355081614190565b82525050565b60006135618261407e565b61356b81856140ac565b93508360208202850161357d85614059565b8060005b858110156135b9578484038952815161359a8582613524565b94506135a58361409f565b925060208a01995050600181019050613581565b50829750879550505050505092915050565b6135d4816141a2565b82525050565b60006135e582614089565b6135ef81856140bd565b93506135ff818560208601614213565b61360881614336565b840191505092915050565b600061361e82614094565b61362881856140d9565b9350613638818560208601614213565b61364181614336565b840191505092915050565b600061365782614094565b61366181856140ea565b9350613671818560208601614213565b61367a81614336565b840191505092915050565b600061369082614094565b61369a81856140fb565b93506136aa818560208601614213565b80840191505092915050565b600081546136c381614246565b6136cd81866140fb565b945060018216600081146136e857600181146136f95761372c565b60ff1983168652818601935061372c565b61370285614069565b60005b8381101561372457815481890152600182019150602081019050613705565b838801955050505b50505092915050565b60006137426007836140ea565b915061374d82614347565b602082019050919050565b6000613765602d836140ea565b915061377082614370565b604082019050919050565b6000613788602b836140ea565b9150613793826143bf565b604082019050919050565b60006137ab6032836140ea565b91506137b68261440e565b604082019050919050565b60006137ce6026836140ea565b91506137d98261445d565b604082019050919050565b60006137f16025836140ea565b91506137fc826144ac565b604082019050919050565b6000613814601c836140ea565b915061381f826144fb565b602082019050919050565b60006138376020836140ea565b915061384282614524565b602082019050919050565b600061385a6024836140ea565b91506138658261454d565b604082019050919050565b600061387d6019836140ea565b91506138888261459c565b602082019050919050565b60006138a06029836140ea565b91506138ab826145c5565b604082019050919050565b60006138c36020836140ea565b91506138ce82614614565b602082019050919050565b60006138e66020836140ea565b91506138f18261463d565b602082019050919050565b6000613909602f836140ea565b915061391482614666565b604082019050919050565b600061392c6018836140ea565b9150613937826146b5565b602082019050919050565b600061394f6021836140ea565b915061395a826146de565b604082019050919050565b60006139726000836140ce565b915061397d8261472d565b600082019050919050565b6000613995603d836140ea565b91506139a082614730565b604082019050919050565b60006139b8602c836140ea565b91506139c38261477f565b604082019050919050565b60006139db601f836140ea565b91506139e6826147ce565b602082019050919050565b60006139fe6035836140ea565b9150613a09826147f7565b604082019050919050565b6000613a216014836140ea565b9150613a2c82614846565b602082019050919050565b600060a083016000830151613a4f6000860182613b23565b506020830151613a626020860182613538565b506040830151613a756040860182613b23565b5060608301518482036060860152613a8d8282613613565b9150506080830151613aa26080860182613b23565b508091505092915050565b600060a083016000830151613ac56000860182613b23565b506020830151613ad86020860182613538565b506040830151613aeb6040860182613b23565b5060608301518482036060860152613b038282613613565b9150506080830151613b186080860182613b23565b508091505092915050565b613b2c816141fa565b82525050565b613b3b816141fa565b82525050565b6000613b4d8284613685565b915081905092915050565b6000613b648286613685565b9150613b708285613685565b9150613b7c82846136b6565b9150819050949350505050565b6000613b9482613965565b9150819050919050565b6000602082019050613bb36000830184613547565b92915050565b6000608082019050613bce6000830187613547565b613bdb6020830186613547565b613be86040830185613b32565b8181036060830152613bfa81846135da565b905095945050505050565b60006020820190508181036000830152613c1f8184613556565b905092915050565b6000602082019050613c3c60008301846135cb565b92915050565b60006020820190508181036000830152613c5c818461364c565b905092915050565b60006020820190508181036000830152613c7d81613735565b9050919050565b60006020820190508181036000830152613c9d81613758565b9050919050565b60006020820190508181036000830152613cbd8161377b565b9050919050565b60006020820190508181036000830152613cdd8161379e565b9050919050565b60006020820190508181036000830152613cfd816137c1565b9050919050565b60006020820190508181036000830152613d1d816137e4565b9050919050565b60006020820190508181036000830152613d3d81613807565b9050919050565b60006020820190508181036000830152613d5d8161382a565b9050919050565b60006020820190508181036000830152613d7d8161384d565b9050919050565b60006020820190508181036000830152613d9d81613870565b9050919050565b60006020820190508181036000830152613dbd81613893565b9050919050565b60006020820190508181036000830152613ddd816138b6565b9050919050565b60006020820190508181036000830152613dfd816138d9565b9050919050565b60006020820190508181036000830152613e1d816138fc565b9050919050565b60006020820190508181036000830152613e3d8161391f565b9050919050565b60006020820190508181036000830152613e5d81613942565b9050919050565b60006020820190508181036000830152613e7d81613988565b9050919050565b60006020820190508181036000830152613e9d816139ab565b9050919050565b60006020820190508181036000830152613ebd816139ce565b9050919050565b60006020820190508181036000830152613edd816139f1565b9050919050565b60006020820190508181036000830152613efd81613a14565b9050919050565b60006020820190508181036000830152613f1e8184613aad565b905092915050565b6000602082019050613f3b6000830184613b32565b92915050565b600060a082019050613f566000830188613b32565b613f636020830187613547565b613f706040830186613b32565b8181036060830152613f82818561364c565b9050613f916080830184613b32565b9695505050505050565b6000606082019050613fb06000830186613b32565b613fbd6020830185613b32565b613fca6040830184613b32565b949350505050565b6000613fdc613fed565b9050613fe88282614278565b919050565b6000604051905090565b600067ffffffffffffffff82111561401257614011614307565b5b61401b82614336565b9050602081019050919050565b600067ffffffffffffffff82111561404357614042614307565b5b61404c82614336565b9050602081019050919050565b6000819050602082019050919050565b60008190508160005260206000209050919050565b600081519050919050565b600081519050919050565b600081519050919050565b6000602082019050919050565b600082825260208201905092915050565b600082825260208201905092915050565b600081905092915050565b600082825260208201905092915050565b600082825260208201905092915050565b600081905092915050565b6000614111826141fa565b915061411c836141fa565b9250827fffffffffffffffffffffffffffffffffffffffffffffffffffffffffffffffff03821115614151576141506142a9565b5b828201905092915050565b6000614167826141fa565b9150614172836141fa565b925082821015614185576141846142a9565b5b828203905092915050565b600061419b826141da565b9050919050565b60008115159050919050565b60007fffffffff0000000000000000000000000000000000000000000000000000000082169050919050565b600073ffffffffffffffffffffffffffffffffffffffff82169050919050565b6000819050919050565b82818337600083830152505050565b60005b83811015614231578082015181840152602081019050614216565b83811115614240576000848401525b50505050565b6000600282049050600182168061425e57607f821691505b60208210811415614272576142716142d8565b5b50919050565b61428182614336565b810181811067ffffffffffffffff821117156142a05761429f614307565b5b80604052505050565b7f4e487b7100000000000000000000000000000000000000000000000000000000600052601160045260246000fd5b7f4e487b7100000000000000000000000000000000000000000000000000000000600052602260045260246000fd5b7f4e487b7100000000000000000000000000000000000000000000000000000000600052604160045260246000fd5b6000601f19601f8301169050919050565b7f546f6f206c6f7700000000000000000000000000000000000000000000000000600082015250565b7f4552433732313a2063616c6c6572206973206e6f7420746f6b656e206f776e6560008201527f72206f7220617070726f76656400000000000000000000000000000000000000602082015250565b7f455243373231456e756d657261626c653a206f776e657220696e646578206f7560008201527f74206f6620626f756e6473000000000000000000000000000000000000000000602082015250565b7f4552433732313a207472616e7366657220746f206e6f6e20455243373231526560008201527f63656976657220696d706c656d656e7465720000000000000000000000000000602082015250565b7f4f776e61626c653a206e6577206f776e657220697320746865207a65726f206160008201527f6464726573730000000000000000000000000000000000000000000000000000602082015250565b7f4552433732313a207472616e736665722066726f6d20696e636f72726563742060008201527f6f776e6572000000000000000000000000000000000000000000000000000000602082015250565b7f4552433732313a20746f6b656e20616c7265616479206d696e74656400000000600082015250565b7f536f7272792c20616c6c204e4654732068617665206265656e206d696e746564600082015250565b7f4552433732313a207472616e7366657220746f20746865207a65726f2061646460008201527f7265737300000000000000000000000000000000000000000000000000000000602082015250565b7f4552433732313a20617070726f766520746f2063616c6c657200000000000000600082015250565b7f4552433732313a2061646472657373207a65726f206973206e6f74206120766160008201527f6c6964206f776e65720000000000000000000000000000000000000000000000602082015250565b7f4552433732313a206d696e7420746f20746865207a65726f2061646472657373600082015250565b7f4f776e61626c653a2063616c6c6572206973206e6f7420746865206f776e6572600082015250565b7f4552433732314d657461646174613a2055524920717565727920666f72206e6f60008201527f6e6578697374656e7420746f6b656e0000000000000000000000000000000000602082015250565b7f4552433732313a20696e76616c696420746f6b656e2049440000000000000000600082015250565b7f4552433732313a20617070726f76616c20746f2063757272656e74206f776e6560008201527f7200000000000000000000000000000000000000000000000000000000000000602082015250565b50565b7f4552433732313a20617070726f76652063616c6c6572206973206e6f7420746f60008201527f6b656e206f776e6572206f7220617070726f76656420666f7220616c6c000000602082015250565b7f455243373231456e756d657261626c653a20676c6f62616c20696e646578206f60008201527f7574206f6620626f756e64730000000000000000000000000000000000000000602082015250565b7f4f6e2050617573652c204e465420556e646572204d61696e74656e616e636500600082015250565b7f455243373231456e756d657261626c653a20636f6e736563757469766520747260008201527f616e7366657273206e6f7420737570706f727465640000000000000000000000602082015250565b7f506c6561736520746f7020757020657468657273000000000000000000000000600082015250565b61487881614190565b811461488357600080fd5b50565b61488f816141a2565b811461489a57600080fd5b50565b6148a6816141ae565b81146148b157600080fd5b50565b6148bd816141fa565b81146148c857600080fd5b5056fea264697066735822122072db935bd7e3f41c48fc20d15081b8b40660d4949a196803d41e8d89654e6e7f64736f6c63430008040033",
  "linkReferences": {},
  "deployedLinkReferences": {}
}